{
  "_format": "hh-sol-artifact-1",
  "contractName": "GDCProgressive",
  "sourceName": "contracts/GDCToken.sol",
  "abi": [
    {
      "inputs": [],
      "stateMutability": "nonpayable",
      "type": "constructor"
    },
    {
      "anonymous": false,
      "inputs": [
        {
          "indexed": true,
          "internalType": "address",
          "name": "owner",
          "type": "address"
        },
        {
          "indexed": true,
          "internalType": "address",
          "name": "spender",
          "type": "address"
        },
        {
          "indexed": false,
          "internalType": "uint256",
          "name": "value",
          "type": "uint256"
        }
      ],
      "name": "Approval",
      "type": "event"
    },
    {
      "anonymous": false,
      "inputs": [
        {
          "indexed": false,
          "internalType": "address",
          "name": "_account",
          "type": "address"
        },
        {
          "indexed": false,
          "internalType": "bool",
          "name": "_isExclude",
          "type": "bool"
        }
      ],
      "name": "ExcludedFromFee",
      "type": "event"
    },
    {
      "anonymous": false,
      "inputs": [
        {
          "indexed": true,
          "internalType": "address",
          "name": "previousOwner",
          "type": "address"
        },
        {
          "indexed": true,
          "internalType": "address",
          "name": "newOwner",
          "type": "address"
        }
      ],
      "name": "OwnershipTransferred",
      "type": "event"
    },
    {
      "anonymous": false,
      "inputs": [
        {
          "indexed": false,
          "internalType": "uint256",
          "name": "_date",
          "type": "uint256"
        }
      ],
      "name": "StartTrading",
      "type": "event"
    },
    {
      "anonymous": false,
      "inputs": [
        {
          "indexed": false,
          "internalType": "uint256",
          "name": "_newfee",
          "type": "uint256"
        }
      ],
      "name": "TotalFees",
      "type": "event"
    },
    {
      "anonymous": false,
      "inputs": [
        {
          "indexed": true,
          "internalType": "address",
          "name": "from",
          "type": "address"
        },
        {
          "indexed": true,
          "internalType": "address",
          "name": "to",
          "type": "address"
        },
        {
          "indexed": false,
          "internalType": "uint256",
          "name": "value",
          "type": "uint256"
        }
      ],
      "name": "Transfer",
      "type": "event"
    },
    {
      "anonymous": false,
      "inputs": [
        {
          "indexed": false,
          "internalType": "address",
          "name": "_lastAddress",
          "type": "address"
        },
        {
          "indexed": false,
          "internalType": "address",
          "name": "_newAddress",
          "type": "address"
        }
      ],
      "name": "TreasuryWallet",
      "type": "event"
    },
    {
      "inputs": [],
      "name": "STARTMAX",
      "outputs": [
        {
          "internalType": "uint256",
          "name": "",
          "type": "uint256"
        }
      ],
      "stateMutability": "view",
      "type": "function"
    },
    {
      "inputs": [],
      "name": "TOTALSUPPLY",
      "outputs": [
        {
          "internalType": "uint256",
          "name": "",
          "type": "uint256"
        }
      ],
      "stateMutability": "view",
      "type": "function"
    },
    {
      "inputs": [],
      "name": "_startTime",
      "outputs": [
        {
          "internalType": "uint256",
          "name": "",
          "type": "uint256"
        }
      ],
      "stateMutability": "view",
      "type": "function"
    },
    {
      "inputs": [],
      "name": "addMaxWalletPerSec",
      "outputs": [
        {
          "internalType": "uint256",
          "name": "",
          "type": "uint256"
        }
      ],
      "stateMutability": "view",
      "type": "function"
    },
    {
      "inputs": [
        {
          "internalType": "address",
          "name": "owner",
          "type": "address"
        },
        {
          "internalType": "address",
          "name": "spender",
          "type": "address"
        }
      ],
      "name": "allowance",
      "outputs": [
        {
          "internalType": "uint256",
          "name": "",
          "type": "uint256"
        }
      ],
      "stateMutability": "view",
      "type": "function"
    },
    {
      "inputs": [
        {
          "internalType": "address",
          "name": "spender",
          "type": "address"
        },
        {
          "internalType": "uint256",
          "name": "amount",
          "type": "uint256"
        }
      ],
      "name": "approve",
      "outputs": [
        {
          "internalType": "bool",
          "name": "",
          "type": "bool"
        }
      ],
      "stateMutability": "nonpayable",
      "type": "function"
    },
    {
      "inputs": [
        {
          "internalType": "address",
          "name": "account",
          "type": "address"
        }
      ],
      "name": "balanceOf",
      "outputs": [
        {
          "internalType": "uint256",
          "name": "",
          "type": "uint256"
        }
      ],
      "stateMutability": "view",
      "type": "function"
    },
    {
      "inputs": [],
      "name": "decimals",
      "outputs": [
        {
          "internalType": "uint8",
          "name": "",
          "type": "uint8"
        }
      ],
      "stateMutability": "view",
      "type": "function"
    },
    {
      "inputs": [
        {
          "internalType": "address",
          "name": "spender",
          "type": "address"
        },
        {
          "internalType": "uint256",
          "name": "subtractedValue",
          "type": "uint256"
        }
      ],
      "name": "decreaseAllowance",
      "outputs": [
        {
          "internalType": "bool",
          "name": "",
          "type": "bool"
        }
      ],
      "stateMutability": "nonpayable",
      "type": "function"
    },
    {
      "inputs": [
        {
          "internalType": "address",
          "name": "_account",
          "type": "address"
        },
        {
          "internalType": "bool",
          "name": "_isExclude",
          "type": "bool"
        }
      ],
      "name": "excludeFromFee",
      "outputs": [],
      "stateMutability": "nonpayable",
      "type": "function"
    },
    {
      "inputs": [],
      "name": "fee",
      "outputs": [
        {
          "internalType": "uint256",
          "name": "",
          "type": "uint256"
        }
      ],
      "stateMutability": "view",
      "type": "function"
    },
    {
      "inputs": [
        {
          "internalType": "address",
          "name": "spender",
          "type": "address"
        },
        {
          "internalType": "uint256",
          "name": "addedValue",
          "type": "uint256"
        }
      ],
      "name": "increaseAllowance",
      "outputs": [
        {
          "internalType": "bool",
          "name": "",
          "type": "bool"
        }
      ],
      "stateMutability": "nonpayable",
      "type": "function"
    },
    {
      "inputs": [
        {
          "internalType": "address",
          "name": "_account",
          "type": "address"
        }
      ],
      "name": "isExcludedFromFees",
      "outputs": [
        {
          "internalType": "bool",
          "name": "",
          "type": "bool"
        }
      ],
      "stateMutability": "view",
      "type": "function"
    },
    {
      "inputs": [
        {
          "internalType": "address",
          "name": "acc",
          "type": "address"
        }
      ],
      "name": "maxWallet",
      "outputs": [
        {
          "internalType": "uint256",
          "name": "",
          "type": "uint256"
        }
      ],
      "stateMutability": "view",
      "type": "function"
    },
    {
      "inputs": [],
      "name": "name",
      "outputs": [
        {
          "internalType": "string",
          "name": "",
          "type": "string"
        }
      ],
      "stateMutability": "view",
      "type": "function"
    },
    {
      "inputs": [],
      "name": "owner",
      "outputs": [
        {
          "internalType": "address",
          "name": "",
          "type": "address"
        }
      ],
      "stateMutability": "view",
      "type": "function"
    },
    {
      "inputs": [],
      "name": "pool",
      "outputs": [
        {
          "internalType": "address",
          "name": "",
          "type": "address"
        }
      ],
      "stateMutability": "view",
      "type": "function"
    },
    {
      "inputs": [],
      "name": "renounceOwnership",
      "outputs": [],
      "stateMutability": "nonpayable",
      "type": "function"
    },
    {
      "inputs": [
        {
          "internalType": "uint256",
          "name": "_newfee",
          "type": "uint256"
        }
      ],
      "name": "setFee",
      "outputs": [],
      "stateMutability": "nonpayable",
      "type": "function"
    },
    {
      "inputs": [
        {
          "internalType": "address",
          "name": "_newTreasuryWallet",
          "type": "address"
        }
      ],
      "name": "setTreasuryWallet",
      "outputs": [],
      "stateMutability": "nonpayable",
      "type": "function"
    },
    {
      "inputs": [
        {
          "internalType": "address",
          "name": "poolAddress",
          "type": "address"
        }
      ],
      "name": "start",
      "outputs": [],
      "stateMutability": "nonpayable",
      "type": "function"
    },
    {
      "inputs": [],
      "name": "symbol",
      "outputs": [
        {
          "internalType": "string",
          "name": "",
          "type": "string"
        }
      ],
      "stateMutability": "view",
      "type": "function"
    },
    {
      "inputs": [],
      "name": "totalSupply",
      "outputs": [
        {
          "internalType": "uint256",
          "name": "",
          "type": "uint256"
        }
      ],
      "stateMutability": "view",
      "type": "function"
    },
    {
      "inputs": [
        {
          "internalType": "address",
          "name": "recipient",
          "type": "address"
        },
        {
          "internalType": "uint256",
          "name": "amount",
          "type": "uint256"
        }
      ],
      "name": "transfer",
      "outputs": [
        {
          "internalType": "bool",
          "name": "",
          "type": "bool"
        }
      ],
      "stateMutability": "nonpayable",
      "type": "function"
    },
    {
      "inputs": [
        {
          "internalType": "address",
          "name": "sender",
          "type": "address"
        },
        {
          "internalType": "address",
          "name": "recipient",
          "type": "address"
        },
        {
          "internalType": "uint256",
          "name": "amount",
          "type": "uint256"
        }
      ],
      "name": "transferFrom",
      "outputs": [
        {
          "internalType": "bool",
          "name": "",
          "type": "bool"
        }
      ],
      "stateMutability": "nonpayable",
      "type": "function"
    },
    {
      "inputs": [
        {
          "internalType": "address",
          "name": "newOwner",
          "type": "address"
        }
      ],
      "name": "transferOwnership",
      "outputs": [],
      "stateMutability": "nonpayable",
      "type": "function"
    },
    {
      "inputs": [],
      "name": "treasury",
      "outputs": [
        {
          "internalType": "address",
          "name": "",
          "type": "address"
        }
      ],
      "stateMutability": "view",
      "type": "function"
    }
  ],
  "bytecode": "0x60806040526201fa40620000206103e869d3c21bcecceda1000000620002f6565b620000369069d3c21bcecceda100000062000317565b620000429190620002f6565b600b553480156200005257600080fd5b50604051806040016040528060088152602001672227a3aa37b5b2b760c11b81525060405180604001604052806003815260200162444f4760e81b8152508160039080519060200190620000a892919062000235565b508051620000be90600490602084019062000235565b505050620000db620000d5620000f760201b60201c565b620000fb565b620000f13369d3c21bcecceda10000006200014d565b62000384565b3390565b600580546001600160a01b038381166001600160a01b0319831681179093556040519116919082907f8be0079c531659141344cd1fd0a4f28419497f9722a3daafe3b4186f6b6457e090600090a35050565b6001600160a01b038216620001a85760405162461bcd60e51b815260206004820152601f60248201527f45524332303a206d696e7420746f20746865207a65726f206164647265737300604482015260640160405180910390fd5b8060026000828254620001bc9190620002db565b90915550506001600160a01b03821660009081526020819052604081208054839290620001eb908490620002db565b90915550506040518181526001600160a01b038316906000907fddf252ad1be2c89b69c2b068fc378daa952ba7f163c4a11628f55a4df523b3ef9060200160405180910390a35050565b828054620002439062000331565b90600052602060002090601f016020900481019282620002675760008555620002b2565b82601f106200028257805160ff1916838001178555620002b2565b82800160010185558215620002b2579182015b82811115620002b257825182559160200191906001019062000295565b50620002c0929150620002c4565b5090565b5b80821115620002c05760008155600101620002c5565b60008219821115620002f157620002f16200036e565b500190565b6000826200031257634e487b7160e01b81526012600452602481fd5b500490565b6000828210156200032c576200032c6200036e565b500390565b600181811c908216806200034657607f821691505b602082108114156200036857634e487b7160e01b600052602260045260246000fd5b50919050565b634e487b7160e01b600052601160045260246000fd5b6114d480620003946000396000f3fe608060405234801561001057600080fd5b50600436106101a95760003560e01c80638d855f15116100f9578063dd0b281e11610097578063df8408fe11610071578063df8408fe146103b2578063e73793ec146103c5578063f2fde38b146103d8578063fa1acb5c146103eb57600080fd5b8063dd0b281e1461035d578063dd62ed3e14610370578063ddca3f43146103a957600080fd5b806395d89b41116100d357806395d89b411461031c578063a457c2d714610324578063a8602fea14610337578063a9059cbb1461034a57600080fd5b80638d855f15146102f25780638da5cb5b146102fa57806394a08c691461030b57600080fd5b8063313ce5671161016657806361d027b31161014057806361d027b31461029957806369fe0e2d146102ac57806370a08231146102c1578063715018a6146102ea57600080fd5b8063313ce5671461024b578063395093511461025a5780634fbee1931461026d57600080fd5b806306fdde03146101ae578063095ea7b3146101cc57806314c47405146101ef57806316f0115b1461020557806318160ddd1461023057806323b872dd14610238575b600080fd5b6101b66103f4565b6040516101c39190611269565b60405180910390f35b6101df6101da366004611210565b610486565b60405190151581526020016101c3565b6101f761049d565b6040519081526020016101c3565b600654610218906001600160a01b031681565b6040516001600160a01b0390911681526020016101c3565b6002546101f7565b6101df61024636600461119b565b6104b6565b604051601281526020016101c3565b6101df610268366004611210565b610565565b6101df61027b366004611148565b6001600160a01b03166000908152600a602052604090205460ff1690565b600754610218906001600160a01b031681565b6102bf6102ba366004611239565b6105a1565b005b6101f76102cf366004611148565b6001600160a01b031660009081526020819052604090205490565b6102bf610651565b600b546101f7565b6005546001600160a01b0316610218565b6101f769d3c21bcecceda100000081565b6101b6610687565b6101df610332366004611210565b610696565b6102bf610345366004611148565b61072f565b6101df610358366004611210565b61081d565b6102bf61036b366004611148565b61082a565b6101f761037e366004611169565b6001600160a01b03918216600090815260016020908152604080832093909416825291909152205490565b6101f760095481565b6102bf6103c03660046111d6565b61090d565b6101f76103d3366004611148565b610a6f565b6102bf6103e6366004611148565b610b24565b6101f760085481565b6060600380546104039061144d565b80601f016020809104026020016040519081016040528092919081815260200182805461042f9061144d565b801561047c5780601f106104515761010080835404028352916020019161047c565b820191906000526020600020905b81548152906001019060200180831161045f57829003601f168201915b5050505050905090565b6000610493338484610bbf565b5060015b92915050565b6104b36103e869d3c21bcecceda1000000611309565b81565b60006104c3848484610ce3565b6001600160a01b03841660009081526001602090815260408083203384529091529020548281101561054d5760405162461bcd60e51b815260206004820152602860248201527f45524332303a207472616e7366657220616d6f756e74206578636565647320616044820152676c6c6f77616e636560c01b60648201526084015b60405180910390fd5b61055a8533858403610bbf565b506001949350505050565b3360008181526001602090815260408083206001600160a01b0387168452909152812054909161049391859061059c9086906112f1565b610bbf565b6005546001600160a01b031633146105cb5760405162461bcd60e51b8152600401610544906112bc565b600a8111156106155760405162461bcd60e51b8152602060048201526016602482015275466565732063616e6e6f74206578636565642031302560501b6044820152606401610544565b60098190556040518181527feb83658d19fdb40df876507c757df5a649dd67a87de3427cd446243760108d06906020015b60405180910390a150565b6005546001600160a01b0316331461067b5760405162461bcd60e51b8152600401610544906112bc565b6106856000610f0b565b565b6060600480546104039061144d565b3360009081526001602090815260408083206001600160a01b0386168452909152812054828110156107185760405162461bcd60e51b815260206004820152602560248201527f45524332303a2064656372656173656420616c6c6f77616e63652062656c6f77604482015264207a65726f60d81b6064820152608401610544565b6107253385858403610bbf565b5060019392505050565b6005546001600160a01b031633146107595760405162461bcd60e51b8152600401610544906112bc565b6001600160a01b0381166107c85760405162461bcd60e51b815260206004820152603060248201527f4d61726b6574696e672057616c6c65742063616e6e6f7420626520657175616c60448201526f20746f207a65726f206164647265737360801b6064820152608401610544565b600780546001600160a01b0319166001600160a01b0383169081179091556040805182815260208101929092527f4804ea4850cd363dc84d87df68a72ddb14d281cca97a400f4d3d931d852472d99101610646565b6000610493338484610ce3565b6005546001600160a01b031633146108545760405162461bcd60e51b8152600401610544906112bc565b6006546001600160a01b03161561089f5760405162461bcd60e51b815260206004820152600f60248201526e105b1c9958591e4814dd185c9d1959608a1b6044820152606401610544565b600680546001600160a01b0319166001600160a01b0383169081179091556000908152600a6020908152604091829020805460ff1916600117905542600881905591519182527f1344a223a416e8ccc34b53262a05bb13e0a3de1ba8a305a88d1d171c63bcddc09101610646565b6005546001600160a01b031633146109375760405162461bcd60e51b8152600401610544906112bc565b6001600160a01b03821661099d5760405162461bcd60e51b815260206004820152602760248201527f4163636f756e742063616e6e6f7420626520657175616c20746f207a65726f206044820152666164647265737360c81b6064820152608401610544565b6001600160a01b0382166000908152600a602052604090205460ff1615158115151415610a0c5760405162461bcd60e51b815260206004820152601f60248201527f546865207573657220616c7265616479206861732074686520737461747573006044820152606401610544565b6001600160a01b0382166000818152600a6020908152604091829020805460ff19168515159081179091558251938452908301527f2d43abd87b27cee7b0aa8c6f7e0b4a3247b683262a83cbc2318b0df398a49aa9910160405180910390a15050565b6006546000906001600160a01b03161580610a9757506006546001600160a01b038381169116145b80610aaf57506005546001600160a01b038381169116145b15610ad457610ac06012600a61136c565b6104979069d3c21bcecceda1000000611309565b610ae06012600a61136c565b600b54600854610af09042611436565b610afa9190611417565b610b106103e869d3c21bcecceda1000000611309565b610b1a91906112f1565b6104979190611309565b6005546001600160a01b03163314610b4e5760405162461bcd60e51b8152600401610544906112bc565b6001600160a01b038116610bb35760405162461bcd60e51b815260206004820152602660248201527f4f776e61626c653a206e6577206f776e657220697320746865207a65726f206160448201526564647265737360d01b6064820152608401610544565b610bbc81610f0b565b50565b6001600160a01b038316610c215760405162461bcd60e51b8152602060048201526024808201527f45524332303a20617070726f76652066726f6d20746865207a65726f206164646044820152637265737360e01b6064820152608401610544565b6001600160a01b038216610c825760405162461bcd60e51b815260206004820152602260248201527f45524332303a20617070726f766520746f20746865207a65726f206164647265604482015261737360f01b6064820152608401610544565b6001600160a01b0383811660008181526001602090815260408083209487168084529482529182902085905590518481527f8c5be1e5ebec7d5bd14f71427d1e84f3dd0314c0f7b2291e5b200ac8c7c3b925910160405180910390a3505050565b6006546001600160a01b0316151580610d0957506005546001600160a01b038481169116145b80610d2157506005546001600160a01b038381169116145b610d5b5760405162461bcd60e51b815260206004820152600b60248201526a1b9bdd081cdd185c9d195960aa1b6044820152606401610544565b6040516339cde4fb60e21b81526001600160a01b0383166004820152309063e73793ec9060240160206040518083038186803b158015610d9a57600080fd5b505afa158015610dae573d6000803e3d6000fd5b505050506040513d601f19601f82011682018060405250810190610dd29190611251565b81610df2846001600160a01b031660009081526020819052604090205490565b610dfc91906112f1565b1115610e3d5760405162461bcd60e51b815260206004820152601060248201526f1b585e081dd85b1b195d081b1a5b5a5d60821b6044820152606401610544565b6006546001600160a01b0384811691161480610e6657506006546001600160a01b038381169116145b15610efb576001600160a01b0382166000908152600a602052604081205460ff161580610eac57506001600160a01b0384166000908152600a602052604090205460ff16155b90508015610ef9576000606460095484610ec69190611417565b610ed09190611309565b9050610edc8184611436565b600754909350610ef79086906001600160a01b031683610f5d565b505b505b610f06838383610f5d565b505050565b600580546001600160a01b038381166001600160a01b0319831681179093556040519116919082907f8be0079c531659141344cd1fd0a4f28419497f9722a3daafe3b4186f6b6457e090600090a35050565b6001600160a01b038316610fc15760405162461bcd60e51b815260206004820152602560248201527f45524332303a207472616e736665722066726f6d20746865207a65726f206164604482015264647265737360d81b6064820152608401610544565b6001600160a01b0382166110235760405162461bcd60e51b815260206004820152602360248201527f45524332303a207472616e7366657220746f20746865207a65726f206164647260448201526265737360e81b6064820152608401610544565b6001600160a01b0383166000908152602081905260409020548181101561109b5760405162461bcd60e51b815260206004820152602660248201527f45524332303a207472616e7366657220616d6f756e7420657863656564732062604482015265616c616e636560d01b6064820152608401610544565b6001600160a01b038085166000908152602081905260408082208585039055918516815290812080548492906110d29084906112f1565b92505081905550826001600160a01b0316846001600160a01b03167fddf252ad1be2c89b69c2b068fc378daa952ba7f163c4a11628f55a4df523b3ef8460405161111e91815260200190565b60405180910390a350505050565b80356001600160a01b038116811461114357600080fd5b919050565b600060208284031215611159578081fd5b6111628261112c565b9392505050565b6000806040838503121561117b578081fd5b6111848361112c565b91506111926020840161112c565b90509250929050565b6000806000606084860312156111af578081fd5b6111b88461112c565b92506111c66020850161112c565b9150604084013590509250925092565b600080604083850312156111e8578182fd5b6111f18361112c565b915060208301358015158114611205578182fd5b809150509250929050565b60008060408385031215611222578182fd5b61122b8361112c565b946020939093013593505050565b60006020828403121561124a578081fd5b5035919050565b600060208284031215611262578081fd5b5051919050565b6000602080835283518082850152825b8181101561129557858101830151858201604001528201611279565b818111156112a65783604083870101525b50601f01601f1916929092016040019392505050565b6020808252818101527f4f776e61626c653a2063616c6c6572206973206e6f7420746865206f776e6572604082015260600190565b6000821982111561130457611304611488565b500190565b60008261132457634e487b7160e01b81526012600452602481fd5b500490565b600181815b8085111561136457816000190482111561134a5761134a611488565b8085161561135757918102915b93841c939080029061132e565b509250929050565b600061116260ff84168360008261138557506001610497565b8161139257506000610497565b81600181146113a857600281146113b2576113ce565b6001915050610497565b60ff8411156113c3576113c3611488565b50506001821b610497565b5060208310610133831016604e8410600b84101617156113f1575081810a610497565b6113fb8383611329565b806000190482111561140f5761140f611488565b029392505050565b600081600019048311821515161561143157611431611488565b500290565b60008282101561144857611448611488565b500390565b600181811c9082168061146157607f821691505b6020821081141561148257634e487b7160e01b600052602260045260246000fd5b50919050565b634e487b7160e01b600052601160045260246000fdfea2646970667358221220863a5cc220cc1510b82c42223c47f4b6ebaccd846530648bdf1e5f1daaad802064736f6c63430008040033",
  "linkReferences": {},
  "deployedLinkReferences": {}
}